:020000040800F2
:1000000018890020C101000863510008AF450008AD
:1000100061510008510A00082D6E00080000000020
:100020000000000000000000000000006553000810
:100030002D0C00080000000071510008D9010008D3
:10004000DB010008DB010008DB010008DB01000820
:10005000DB010008DB0100082F0C0008DB010008B1
:10006000DB0100083D0C0008DB010008DB01000893
:10007000DB010008F10A0008DB010008DB010008D1
:10008000DB010008DB010008DB010008DB010008E0
:10009000DB010008DB010008DB010008DB010008D0
:1000A000DB010008DB010008DB010008DB010008C0
:1000B000DB010008F1540008FD540008DB010008D2
:1000C000DB010008DB010008DB010008DB010008A0
:1000D000DB010008DB010008DB010008DB01000890
:1000E000350C0008DB010008DB010008DB0100081B
:1000F000DB010008DB010008DB010008DB01000870
:10010000DB010008DB01000809550008DB010008DD
:10011000DB010008DB01000815550008DB010008C1
:10012000A50B0008DB010008DB010008DB0100086B
:10013000DB010008DB010008DB010008DB0100082F
:10014000DB010008DB010008DB010008DB0100081F
:10015000DB010008DB010008DB010008DB0100080F
:10016000DB010008DB010008DB010008DB010008FF
:10017000DB01000865510008DB01000800000000F9
:10018000DB010008DB010008DB010008DB010008DF
:10019000DB010008DB010008DB010008DB010008CF
:1001A000A5490008DB010008FD0A0008DFF80CD0B3
:1001B00000F08CF800480047B17000081889002052
:1001C0000648804706480047FEE7FEE7FEE7FEE7F1
:1001D000FEE7FEE7FEE7FEE7FEE7FEE7D554000890
:1001E000AD0100082DE9F05F0546002092469B46D0
:1001F00088460646814640241BE02846414647463D
:10020000224600F053F853465A46C01A914110D383
:1002100011461846224600F03AF82D1A67EB0108FD
:100220004F4622460120002100F031F817EB00096B
:100230004E41201EA4F10104DFDC484631462A4627
:100240004346BDE8F09F40EA01039B0703D009E065
:1002500008C9121F08C0042AFAD203E011F8013BB2
:1002600000F8013B521EF9D27047D2B201E000F80B
:10027000012B491EFBD270470022F6E710B513464A
:100280000A4604461946FFF7F0FF204610BD202A13
:1002900004DB203A00FA02F1002070479140C2F1DD
:1002A000200320FA03F3194390407047202A04DB0F
:1002B000203A21FA02F00021704721FA02F3D040DF
:1002C000C2F120029140084319467047064C074D81
:1002D00006E0E06840F0010394E807009847103416
:1002E000AC42F6D3FFF766FF34940008549400083C
:1002F00070B58C1810F8015B15F0070301D110F8E8
:10030000013B2A1106D110F8012B03E010F8016B14
:1003100001F8016B5B1EF9D12B0705D40023521E97
:100320000DD401F8013BFAE710F8013BCB1A921CFF
:1003300003E013F8015B01F8015B521EF9D5A142FD
:10034000D8D3002070BD00002DE9FC41BE4C804692
:10035000D4E90005BD49342205FB0211806ACE6D47
:10036000804707462068C06A804703460020CDE9E1
:100370000008284631463A4600F02AFDBDE8FC81D7
:10038000B1480068806800B1004770472DE9F04F20
:1003900085B0DDF8388007464FF0000A0292CDE9BB
:1003A00000310098824546D0CAEBCA040026CDF839
:1003B0000CA0F5B200F0BCF8C088A84238D901986A
:1003C00005EB000900F0B4F8029911F80A10D0F812
:1003D00000A0A1F1200500F0ABF8C08804966843A6
:1003E00050FA86F01AF800A00F9E4FF0000B5FFA4B
:1003F0008BF500F09DF88088A84214D957FA8BF04D
:10040000A0420BD95FEACA71A0EB0400424681B258
:100410001FFA89F008BF324600F04CF80BF1010BCF
:100420004FEA5A0AE3E7049EDDF80CA00136C0E764
:100430000AF1010AB5E705B0BDE8F08F2DE9F04FEC
:1004400085B00F9FD5080022CDE9011304900299D1
:10045000D0B288422AD201994FEAC00844184FF01E
:10046000000903925FFA89F085421CD9049900269D
:1004700001EBC00A0E99404411F800B0082E0FD0CD
:100480004FFA8BF0B0F1FF3F06DC0AEB060081B2B9
:10049000A0B23A4600F00EF801364FEA4B0BEDE7FA
:1004A00009F10109DEE7039A0132D0E705B0BDE8A2
:1004B000F08F0000F8B50646C04814460D46D0E956
:1004C0000010624A342300FB0320C76D886A80470E
:1004D00000FB056047F82040F8BD00BF2DE9FE4F46
:1004E000B64F154689468246D7E90001574A9846D5
:1004F000342301FB0321806AD1F85CB080470446B5
:10050000D7E90006806A80477968401B01EB41010A
:1005100007EB810189682A46CDE9000104FB09A0A7
:1005200043460BEB8001304600F052FCBDE8FE8FE5
:10053000A248416801EB410100EB8100006970476E
:10054000F8B5424C00250120092184F836500326D5
:100550001D27C4E905101B4840F2471C40F2171E36
:1005600040F2431240F20D13C4E90776934EC4E9FA
:100570000932C4E90BEC20604FF4003070640420B1
:10058000B063C02030630821304640F8201FA586A4
:1005900002F0FAFCC4E90155C4E9035500F05AF829
:1005A000204601F0B5FD084830600068804700F043
:1005B00007F97068264900EB400006EB80000161F6
:1005C0000020F8BD00680140A8010020F0B58DB002
:1005D0007A4E0446002730680097806A0D468047AF
:1005E000CDE901073068C06A80470995CDE9030766
:1005F000FF208DF83270ADF8307006970590072017
:1006000008904FF4C06007903068806A80470A9075
:100610003068C06A80470D4D0B90694628462246D7
:1006200001F0E0FC04EB4400094906EB80004FF0C8
:10063000FF324FF07F43C0E902320161284601F0EA
:10064000F5FC0DB0F0BD00BFE00100203803002034
:100650001C000020F0B585B00020F84900904A69E0
:10066000474D42F080624A614A696C4602F08062FE
:100670000092009A00900A68F24F42F400020A6069
:100680000A6802F400020092009A00900A6842F0A0
:1006900001020A600A6802F001020092009A0090CA
:1006A0000A6842F002020A600A6802F0020200923E
:1006B000009A00900A6842F004020A600A6802F098
:1006C00004020092009A00900A6842F008020A6050
:1006D0000A6802F008020092009A00900A6842F04C
:1006E00020020A600A6802F020020092009A00903C
:1006F0000A6842F040020A60096801F04001009176
:1007000000990E21049102210391CDE9011041F6D7
:100710005800009028462146B8474FF4706005F510
:100720008066009030462146B8474FF498600090AC
:1007300005F500602146B8474820009005F5406067
:100740002146B8474FF48060009005F5A05021463F
:10075000B8474FF40C6005F5C05500902846214677
:10076000B847092004900320009030462146B8473E
:100770004FF4A050009028462146B84705B0F0BD80
:10078000000002400D494860704700BF0B494A68AD
:1007900002EB420201EB8201C860704707494A68D8
:1007A00002EB420201EB82010861704703494A688B
:1007B00002EB420201EB820188607047E0010020F9
:1007C000F8B53F4E4FF400500021C6E915104FF424
:1007D00000604FF4C0724023102404250127C6E9AD
:1007E0000D71C6E90F54C6E91132C6E91310022093
:1007F00007213446C6E90615C6E90810C6E90A000D
:1008000044F8140F0B48354645F8300F28460021B0
:1008100000F05AF82846214602F03CFFB0FA80F07A
:100820004009307040F26A5000F006F8307880F0ED
:100830000100F8BD400100A02DE9F84F204D4FF018
:10084000010945F8049F05F12C06DFF878B08046D1
:1008500000244FF0080A304629464FF6FF72C5E9DA
:1008600001A9EC600094D847012000F00FFE02209F
:10087000C5E9000A304629464FF6FF72C5E90294E1
:10088000D84703200427C5E9000A304629464FF619
:10089000FF72C5E90274D8474FF40C7000900098BD
:1008A000C5E9007AC5E90290304629464FF6FF7245
:1008B000D84730464146BDE8F84F02F079BF00BF47
:1008C00030020020D3370008002800F0B6802DE960
:1008D000F04186B080460027584801978168584EFD
:1008E00041F001018160816801AD01F001010191D8
:1008F000019901970168534C41F48001016001683E
:1009000001F48001019101990197016841F0020110
:100910000160016801F002010191019901970168EC
:1009200041F004010160016801F0040101910199A5
:100930000197016841F008010160016801F00801B8
:10094000019101990197016841F01001016001686E
:1009500001F01001019101990197016841F0200116
:100960000160016801F0200101910199019701687E
:1009700041F0400101600068294600F0400001900C
:1009800001980220049002900C20059060200397AB
:1009900001903046A0470120019006F5806029466D
:1009A000A0474CF20370019006F500602946A0476D
:1009B0004FF68370019006F540602946A0474FF638
:1009C0003F00019006F580502946A04748F23310B9
:1009D000019006F5A0502946A0471B4D03204FF477
:1009E00000311A4EC5E90817C5E90A074FF48040DF
:1009F0004FF480514FF480624FF4007380242F63D2
:100A0000C5E90067C5E90243C5E90421C5E9060750
:100A10002846C8F83050C5F8388000F0C5FB284695
:100A200000F0A8FC38200F21002201F0E3FC382060
:100A300001F0D2FC06B0BDE8F0417047303802400A
:100A4000000402401D1600089402002010640240B9
:100A5000FEE7000021280BD0202819D108680D4A94
:100A6000106008794B7989799171537110710FE099
:100A7000084802680A700268120A4A7042888A703E
:100A8000C278CA7002790A7142794A718079887194
:100A900000207047400000200020704710B5124C25
:100AA00005492046002204F0FFFF0449204604F0D7
:100AB000F5FF002010BD00BF3C0E00203C060020CA
:100AC000B0B504460A68074821468280FFF7BBFBA1
:100AD000054D2146284604F0E1FF284604F0C4FFF6
:100AE0000020B0BD0C2900203C16002000207047DB
:100AF000014800F087BB00BF4C190020014800F0FE
:100B0000DBB900BF0C19002070B5049C44EA034413
:100B1000D0E900355E6CB5F5403F06F0404644EA4A
:100B200006045C64DA631CBFD96070BD8068CCB217
:100B300001F47F4201F47F05032806D8DFE800F0C6
:100B40003002142021F07F412AE06FF0FF0000EA1C
:100B500015304FF4704505EA114141EA141108447B
:100B6000F02101EA12211AE04FF478416FF01F00E2
:100B700001EA152100EA521041EAD40101440FE0D4
:100B80004FF4F84000EA55204FF4004505EA1141C2
:100B900041EAD40108446FF01F0101EA92110144B7
:100BA000996370BDF8B5114800F02CFBDFF840C028
:100BB0004FF472739CF806E00E4D1EFB03C3002237
:100BC00017240026B6B2B6F5F27F09D203EB46072A
:100BD0003889B6FBF4F13A8125F811001736F1E7B0
:100BE000BEFA8EF149098CF80610F8BDAC19002048
:100BF00020210020F420002010B501686FF00F02C2
:100C000052FA81F21823B2FBF3F306A4E35C40F23C
:100C1000FF34A1435F2A88BF0431C0E91613084698
:100C200010BD00BF00061016000610167047012008
:100C300000F0EABC4FF4005000F0E6BC082000F0E1
:100C4000E3BC70472DE9F0410B680268012B1ED10F
:100C5000D1E9073422F4F842D1E901E801F10C0CA2
:100C6000496A1A4322439CE8E0101143426801603C
:100C700047F6FF7122EA010141EA0E0141EA08014B
:100C800029433143394341EA0C01416017E047F6FB
:100C9000FF730F1D22EA030CF8CFD1E9062E43EAB9
:100CA0000C0323432B4333433B43D1F820801A43A7
:100CB00042EA0E02496A42EA08021143016000203A
:100CC000BDE8F081426942EA41014161002070477C
:100CD000F8B5054600200090144691E80D006FF02D
:100CE0001F06C96806EB43131043184340EA41202E
:100CF00000900098286100F06BFD0646671CA8690B
:100D0000800609D5002FFAD024B100F061FD801BC8
:100D1000A042F4D90320F8BD0020F8BDF0B58368E7
:100D2000012A27D1294AD1E9057E1A4091E8781095
:100D30002349013B01EB06311143234A02EB0752E1
:100D40001143C26881606FF00F0102F0704201EB45
:100D500004111A4311436FF0FF0202EB0522114305
:100D6000184A02EB0C421143AEF1010241EA026162
:100D7000C16022E091E874006FF00F0703F0704348
:100D8000013A07EB04141A436FF0FF03224303EB0D
:100D900005231A430A4B0B4C03EB06331A430B692A
:100DA00004EB03431A434B69074C896904EB035373
:100DB0001A43013942EA016181600020F0BD00BFA1
:100DC00000F0FFFF0000FFFF0000F0FFFF0F0FFF2C
:100DD0002DE9F8430D46074612480899A94C1E46CE
:100DE000914600224FF44033C0E90043C0E902219C
:100DF00000F001F970B90B48DDF82480394600F0A5
:100E000015F838B9074841462A464B46009600F087
:100E1000B3F908B1BDE8F88302480A21BDE8F843F8
:100E200000F034B9F402002070470000F0B590F8EB
:100E300038300222012B3BD080F83920012280F883
:100E4000382000EB0113D3E907565A6AA5F10904CB
:100E5000170645EA0645022C38BF02F07F4745EAEF
:100E6000070603F11805036871B1D969114F012C08
:100E700001EA070141EA0601D961296819619CBFAD
:100E800022F07F4119620DE0596A0A4F012C01EAF4
:100E9000070141EA06015962296899619CBF22F065
:100EA0007F4199620022012180F8382080F83910B2
:100EB0001046F0BDF0FFFC0070B5044600684668BF
:100EC0000568F10718BF15F480717DD1B0061AD5F9
:100ED00015F4005017D020686169026822F40052AE
:100EE00002604FF020028260E06B40F00200E0639D
:100EF0004FF0000084F838004FF0040084F8390007
:100F000009B12046884730071AD515F4006017D07C
:100F100020686169026822F4006202604FF00802F2
:100F20008260E06B40F00400E0634FF0000084F862
:100F300038004FF0040084F8390009B12046884792
:100F400070070CD515F4806009D02068016821F481
:100F50008061016004218160204600F075F8B007CF
:100F600018D515F4007015D020682169026822F4A4
:100F7000007202604FF002028260E06BE0634FF0AB
:100F8000000084F838004FF0010084F8390009B1FE
:100F900020468847F00616D515F4805013D02068F7
:100FA000016821F48051016010218160E06BE063F1
:100FB000002084F83800012084F839002046BDE87C
:100FC0007040FFF731BF70BD016821F4807101608E
:100FD000E16B41F00101E16301218160002084F8AF
:100FE0003800042084F83900616900293FF46EAFAD
:100FF000204688476AE728B3B0B5044690F8390020
:1010000028B9002084F83800204600F01FF802209C
:1010100084F8390094E80F00056825F44035294329
:101020000160416B21F0070111434163016C43F6FC
:10103000FF7291431943016400200121E06384F8A9
:101040003910B0BD0120704770470000E0B500685E
:101050000C49884218BF8CBD002001900A4800222C
:10106000016841F4000101600068052100F40000FE
:10107000019001985A2001F0BDF95A20BDE88C403A
:1010800001F0AAB900B0024030380240F8B5044679
:101090000020009020680D460168C90716D000F0B6
:1010A00097FB06466F1C2068416889070ED441688B
:1010B0000091009911F0210F2FD1002FF3D000F0F3
:1010C00087FBF5B1801BA842EDD91AE0C169426ADD
:1010D000114389061CD500F07BFB06466F1C206877
:1010E0004168C90614D441680091009911F0290F94
:1010F00023D1002FF3D000F06BFB15B1801BA84269
:10110000EDD9E06B032140F02000E06303202DE0E7
:10111000122181600020012128E00099890603D571
:10112000E16B41F00201E1630099C90703D0E16B73
:1011300041F00101E163212115E00099090703D580
:10114000E16B41F00401E1630099890603D5E16B8D
:1011500041F00201E1630099C90703D0E16B41F05E
:101160000101E1632921816001200421002284F82A
:10117000382084F83910F8BDBCB590F838500446D2
:101180000220012D0FD0069D84F83900012084F83B
:10119000380020460095FFF7B7FC2068016841F051
:1011A000010101600020BCBD70B530B1054690F86A
:1011B0003500022803D1022421E001241FE0286821
:1011C0000024016821F001010160212104604460D4
:1011D0008460C460046141612846FFF70DFD064646
:1011E00005F13C001821FFF747F8E86D3F2101FAAF
:1011F00000F0B0606C6585F8344085F835402046D5
:1012000070BD0000F8B5044600200090D4E91660D7
:10121000574A082115683768814039420CD0226846
:1012200013685B0708D5136823F004031360B160EB
:10123000616D41F00101616501218140394208D0B1
:1012400022685269120604D5B160616D41F0020155
:10125000616504218140394208D0226812689207F2
:1012600004D5B160616D41F00401616510218140D8
:10127000394217D020680268120713D5B16002689E
:101280000168520306D4C90506D4016821F008019B
:10129000016001E0080301D4216C00E0A16C09B1F8
:1012A00020468847E16D202000FA01F23A423BD007
:1012B00020680368DB0637D5B26094F835300268E1
:1012C000052B19D122F016020260426922F0800239
:1012D0004261226C0AB9A26C1AB1026822F00802BB
:1012E00002603F208840B060002084F83400012074
:1012F00084F83500216D37E0016852030CD4C9052C
:101300000ED4016821F010010160002084F834003F
:10131000012084F8350003E0080301D4616C00E08B
:10132000E16B09B120468847606D00B3606DC0076E
:1013300019D0052184F8351021684FF416500A6839
:10134000B5FBF0F022F001020A60009A01328242FD
:10135000009202D80A68D207F7D1012084F835003C
:10136000002084F83400E16C09B120468847F8BDBC
:101370004C0000202DE9F041044600F029FAACB100
:101380000546022084F83500002084F834002168E6
:10139000086820F0010008600868C00709D000F064
:1013A00017FA401B052837D82168F5E70120BDE86A
:1013B000F0810868344A271DE8CF00EA020E43EAAC
:1013C0000E032B43D4E9050C33433B43D4E90728F0
:1013D000184340EA0C00636A104340EA0802042BF9
:1013E0001ED1D4E90A53206B1A431043086051F808
:1013F000140F20F0030040EA050040F00402B3B1EE
:10140000BCF5005F24D0BCF1000F31D1022D32D0E9
:10141000012D27D07DB30AE003262027032012E008
:101420000A6051F8140F20F0070040EA030220463A
:101430000A60FFF7E1FBE16D3F2202FA01F18160F2
:10144000002701260020676584F83560BDE8F0813B
:10145000032DECD8012640270120DFE805F0020C1F
:101460000203F0E7A3F1C070B0FA80F0400904E095
:10147000032D04D3DBD1C3F300600028D7D00126AD
:1014800040270120DFE700BF3F8010F0B0B50446E1
:1014900000F09EF905460548611C007818BF044419
:1014A00000F096F9401BA042FAD3B0BD080000201E
:1014B0002DE9F84FBA4A0A249042BA4A08BF0924D3
:1014C00002444FEAB223092B38BF4FEAB224B64A8E
:1014D00000944FF0000A01230F24A2F57E7B4FF009
:1014E00000090027102F08BFBDE8F88F03FA07F2A4
:1014F0000A4240D00AF00C0C04FA0CF8BC085BF865
:1015000024E0009B0EEA080503FA0CF6D243B5422C
:1015100013D1A54B1D6815401D605D6815405D60C9
:101520009D6815409D60A14B1D6815401D605BF8CE
:10153000245025EA08054BF824500323056803FAD4
:1015400009F4A54305600AF01C050F2303FA05F50D
:101550006FF0030303EA57060644336AAB43336272
:10156000C368A343C36043681A4042608268012392
:10157000A2430F2482600AF1040A09F1020901372B
:10158000B0E700BF80B501281ED0B0F5005F2BD0BA
:10159000082818D119484FF4804100F00DF9184877
:1015A0000068C16841F00401C160016841F00101B7
:1015B000016014480068C16841F00201C16001681F
:1015C00041F00101016080BD012000F0F3FE0A49F5
:1015D0000878B0FA80F04009087005F0A5FD0120F8
:1015E000BDE8804000F0F8BE04484FF40051BDE86B
:1015F000804000F0E1B800BF100000200018024059
:10160000342000207420002003490A68024214BFDD
:1016100008607047FFF7B6BF143C01402DE9FC4F4E
:101620005F4A0A2490425F4A08BF092402444FEAF5
:10163000B223092B38BF4FEAB2244FF0010B4FF011
:1016400000084FF0000E00220094BEF1200F08BFEA
:10165000BDE8FC8F0F680BFA02F6374200F093806A
:101660004F68122F00F295800BFA07F414F0061F52
:1016700000F08F80032303FA0EF48368CD68A34340
:1016800005FA0EF52B438360C7F3001345689340BA
:10169000B5432B436FEA040C4FEA420A4360C46827
:1016A0008D6804EA0C0405FA0AF52C43C46047F07F
:1016B0001004122C12D108F01C040F2303FA04F5B5
:1016C0006FF0030303EA52070744D7F820900B6931
:1016D00029EA0505A3402B433B624F68036807F0E6
:1016E000030403EA0C0304FA0AF423430360FB0037
:1016F00049D5002301932E4B2B4F1C461B6822F02B
:10170000030543F4804323602368BC4603F480430D
:1017100001933D44019F274F08F00C030F24B94665
:10172000EF599C4027EA0404009F07FA03F3234380
:1017300045F80930DCF800304D6843EA0604EF0351
:1017400058BF23EA0604CCF80040DCF80430AF03AD
:1017500043EA060458BF23EA0604CCF80440DCF848
:101760000830EF0243EA060458BF23EA06040F4B91
:10177000CCF808401F461B68AD0243EA060458BF78
:1017800023EA06043C6008F104080EF1020E01325F
:101790005BE7032303FA0EF46FEA040CF2467EE7DC
:1017A000002402400000FEBF003C01400C3C014010
:1017B0004438024008FCFFFF42690A408A4208BFE1
:1017C000090481617047002A08BF090481617047DC
:1017D00001480068704700BF1429002090F83D20A0
:1017E000202A1CBF02207047242280F83D20026876
:1017F000136823F001031360536A23F0100353624C
:10180000536A19435162116841F0010111602021AE
:1018100080F83D100020704710B590F83D20202A38
:101820001CBF022010BD242280F83D2002684FF624
:10183000F074136889B223F001031360536A2340E4
:1018400019435162116841F001011160202180F8B3
:101850003D10002010BD0000F8B560B3044690F8BC
:101860003D0028B9002084F83C00204600F0E4FA4E
:10187000242084F83D002068016821F00101016006
:10188000016841F400410160016821F400410160F8
:1018900001F038FD49494A4B002288424FF00001CF
:1018A00038BF0121984238BF01226368454DAB42E1
:1018B00038BF0A460AB10120F8BD4349434EB0FB88
:1018C000F1F22168B3424D6825F03F0545EA020573
:1018D0004D600D6A25F03F0511D801322A430A6296
:1018E0005A000138B0FBF2F04CF6FF7301306FF391
:1018F0001F30042898BF0420CA699A4337E04FF488
:10190000967672434FF47A76B2FBF6F201380132E2
:101910002A430A62CA694CF6FF75AA43A56845B115
:1019200019265E43B0FBF6F60427013667F31F362F
:1019300006E003EB4306B0FBF6F601366FF31F3605
:10194000360509D055B119256B43B0FBF3F00423DC
:10195000013063F31F3008E0012008E003EB43038C
:10196000B0FBF3F001306FF31F3040F40040104340
:10197000C861E0690A6804F10C0622F0C002104355
:10198000226A10430860886848F2FF3290436CCEA8
:10199000184310438860C86820F0FF002843304394
:1019A000C860086840F00100086000202021206421
:1019B00084F83D10206384F83E00F8BD80841E004A
:1019C00000093D00A186010040420F00A0860100F1
:1019D0002DE9FC4B1D4617468B460446FFF7F8FEE3
:1019E000814694F83D0020280ED1AA4E204606F5E7
:1019F000702101221923CDF8009002F017FE18B9CA
:101A000094F83C00012802D10220BDE8FC8B0120A3
:101A100084F83C0020680168C90703D1016841F0DF
:101A2000010101600168A6F1021221F40061016068
:101A3000222184F83D10102184F83E1000212164F9
:101A40006585618DE26267622185E16A0268DDF881
:101A50002880354642F4806211F5803F026018BF4D
:101A6000012931D1016841F48071016020464FF0B5
:101A7000011100224346CDF8009002F0D7FD48B195
:101A800020680068C00544BF4FF400702064012046
:101A9000BDE8FC8B2069B0F5804F1BD14BF00100F5
:101AA000C0B2216842460861204629464B4602F0F2
:101AB000F8FD0028EBD1208D012842D0002851D11B
:101AC00000210191216843E00829CBD0216B112925
:101AD000C8D0CBE706202F4600EADB15216805F1C8
:101AE000F0000861B91D204642464B4602F0D9FD80
:101AF0000028CCD120685FFA8BF10161204639467D
:101B000042464B4602F0CDFD0028C0D10020019096
:101B10002068002241694346019181690191019940
:101B2000016841F48071016020464FF00111CDF849
:101B3000009002F07BFD0028A2D145F0F10035466F
:101B4000AFE721680A6822F480620A6000220192ED
:101B50004A6901928A690192019A0A6842F4007204
:101B60000A6014E0216802280A6806D122F4806223
:101B70000A600A6842F4006201E042F480620A608E
:101B8000002201924A690192896901910199AF1C71
:101B9000010474D085B2032D0ED8012D28D1204622
:101BA00041464A4602F0C8FD00287FF470AF206825
:101BB000616A0069087058E0204641464A4602F0D2
:101BC000BBFD00287FF463AF2068616A006908707C
:101BD000608D01386085606A2168421C6262208DD8
:101BE000013820854B695B07D2D5086910703CE04D
:101BF0002046394600224346CDF8009002F016FDFB
:101C0000022D1BD000287FF442AF2068616A026871
:101C1000434622F480620260006900220870606A14
:101C2000394601306062208D01382085608D013891
:101C300060852046CDF8009002F0F8FC00287FF483
:101C400026AF2068616A026842F40072026000698F
:101C50000870608D01386085616A20684A1C626284
:101C6000228D013A228500694870606A0130606205
:101C7000208D01382085618D0139618588E720201C
:101C800084F83D00002084F83C0084F83E00BDE864
:101C9000FC8B00BF020001002DE9FC471F461646E1
:101CA00089460446FFF794FD824694F83D002028BB
:101CB0000ED1604D204605F5702101221923CDF883
:101CC00000A002F0B3FC18B994F83C00012802D13E
:101CD0000220BDE8FC87012084F83C0020680168F0
:101CE000C90703D1016841F0010101600168A5F154
:101CF000021221F400610160212184F83D101021BD
:101D000084F83E10002121646785618DE26266627D
:101D10002185E16ADDF8288011F5803F18BF01298F
:101D20001BD1016841F48071016020464FF0011120
:101D300000224346CDF800A002F078FC38B12068BC
:101D40000068C00544BF4FF40070206424E020699F
:101D5000B0F5804F07D1FE2013E00829E1D0216BB8
:101D60001229DED0E1E7062000EAD9102168F03020
:101D70000861A91D20464246534602F092FC58B91C
:101D8000FF20216800EA09000861204629464246F2
:101D9000534602F086FC10B10120BDE8FC8700200C
:101DA0000190206841690191806901900198208D1E
:101DB00088B320464146524602F0EDFC10BB606AF3
:101DC0002168024612F8013B0B61638D013B63857C
:101DD0006262228D561E26854B69360418BF13F0A9
:101DE000040308D0437802300B616062901E2085A6
:101DF000608D0138608520464146524602F0F0FB76
:101E00000028D4D0206C0428C6D12068016841F491
:101E100000710160C0E72068016841F40071016051
:101E2000202084F83D00002084F83C0084F83E0027
:101E3000BDE8FC87020001002DE9F04F87B00446A1
:101E400002A81421FEF718FA2068304DA84259D193
:101E500000262F4F019638684FF0040940F0040027
:101E6000386038684FF0010A00F0040001900198D2
:101E7000019638684FF0120B40F001003860386866
:101E80000DF1080800F0010001904FF40070CDE959
:101E90000569CDF810A0CDF80CB00290019805F5B9
:101EA000D6304146FFF7BAFB4FF48070CDE90569A3
:101EB000CDE903BA029005F5D2304146FFF7AEFBFB
:101EC00001963869134D40F40000134A38614FF40D
:101ED00080604FF0C061C5E90021C5E90266286154
:101EE0003869142100F400000190019805F11400F4
:101EF000FEF7C2F92846FFF73DFA08B1FEF7A1FE4A
:101F0000AC63A56307B0BDE8F08F00BF005C004084
:101F1000303802404C190020406002400348044918
:101F200000780A6810440860704700BF080000206D
:101F30001429002080B50B48016841F4007101604C
:101F4000016841F480610160016841F480710160C1
:101F5000032000F06BFA002000F006F800F00EFA03
:101F6000002080BD003C0240B0B586B0014636205E
:101F70000022002400F03EFA362000F02DFA154829
:101F80000194016841F0100101600068694600F0A9
:101F900010000190019801A801F094F901F0B2F944
:101FA0000F4D4000B0FBF5F00B490C4B013840F2EF
:101FB000E732C1E900300846C1E902420C6101F094
:101FC000D7FF08B1012002E0034802F035F806B05F
:101FD000B0BD00BF40380240B420002000100040D7
:101FE00040420F00F8B50E4690F8A01004460220BB
:101FF000012919D084F8A100342002FB00401546C5
:10200000012738303146342284F8A070FEF71BF9DE
:10201000204631462A4602F0CBFC20684762002069
:1020200084F8A00084F8A170F8BD000090F8A0200A
:102030000221012A0CD080F8A11006490A6842F456
:1020400080320A600021012280F8A01080F8A120CF
:1020500008467047186801407047B0B504460068EC
:10206000816B426B02EA0105690713D5416B21F0D0
:10207000040141630421C163D4F8A40040F00100CD
:10208000C4F8A400002084F8A000204684F8A11021
:10209000FFF7E2FFA80715D52068416B21F0020188
:1020A00041630221C163D4F8A40040F00200C4F8E7
:1020B000A400002084F8A000042084F8A100204699
:1020C000FFF7CAFFE8070ED02068416B21F001013D
:1020D00041630121C163002084F8A000204684F8F8
:1020E000A11000F07FF8280758BFB0BD2068416BF1
:1020F00021F0080141630821C163002084F8A00099
:10210000012084F8A1002046BDE8B04000F034B9B9
:10211000002863D0B0B5044690F8A10028B900208B
:1021200084F8A000204600F05FF8022084F8A100A7
:1021300094E80F0011438569194325F070458561C6
:1021400022691143826911438161826824490A40EE
:102150008260D4E9052343EA024283681A4382601D
:10216000C2680A40C260C268D4E9073545EA034341
:102170001A43C26002690A4002610269D4E9093562
:1021800045EA03431A4302614269114041614169D2
:10219000D4E90B2343EA024211434161C16A01F0D1
:1021A0007F41C16294F8362094F83510120442EA57
:1021B000012194F834201144C26A1143C162416B79
:1021C00041F006014163816941F001018161002014
:1021D0000121C4F8A40084F8A110B0BD012070470B
:1021E00000F800F0704700002DE9F04F87B004467A
:1021F00002A81421FEF740F820685C4A904240F0A3
:10220000B18000265A48019641694FF00E0941F00D
:102210008061416141694FF0020801F080610191E4
:1022200001990196016802AC41F02001016001684A
:10223000504F01F0200101910199019601689346E8
:1022400041F001010160016801F001010191019972
:102250000196016841F002010160016801F002018C
:10226000019101990196016841F040010160016806
:1022700001F04001019101990196016841F00401CA
:102280000160016801F00401019101990196016862
:1022900041F0080101600068214600F0080001904B
:1022A00001984FF48060CDF81890CDE90466CDF820
:1022B0000C80029002F52C40B84741F65800CDE959
:1022C0000569CDE9038602900BF518402146B84711
:1022D0004FF0090A03200BF51C45CDE9056ACDE94D
:1022E0000386029028462146B8474FF47060CDE936
:1022F0000569CDE90386029028462146B8474FF488
:102300000C600BF53045CDE90569CDE903860290F7
:1023100028462146B8474FF49860CDE90569CDE9D4
:10232000038602900BF520402146B8474820CDE9AE
:102330000569CDE9038602900BF524402146B84794
:102340004FF4A050CDE9056ACDE9038602902846F6
:102350002146B84758200521002200F04BF85820AC
:1023600000F03AF807B0BDE8F08F00BF0068014008
:10237000303802401D1600087047000082B000206F
:102380000B4901904A6842F480424A604A6802F46C
:1023900080420192019A0090086840F080500860E5
:1023A000086800F080500090009802B0704700BFAD
:1023B0004038024000280CD400F01F01012202FA2C
:1023C00001F1044A400942F82010BFF34F8FBFF3D8
:1023D0006F8F704780E100E0002808D400F01F01F3
:1023E000012202FA01F1024A400942F82010704726
:1023F00000E100E0B0B5134B4FF0FF351B68C3F3AD
:102400000223DC1E83F0070338BF0024042B28BFFF
:10241000042305FA03F3994305FA04F3A1409A4310
:102420001143BDE8B04004F003BD00BF05494FF6BD
:10243000FF030A681A4060F30A2203481043086049
:10244000704700BF0CED00E00000FA05704700681F
:10245000416200207047B0B50068436AB1B1846A38
:10246000013903EB14430024E5B2A94207D900EB7C
:102470008505D5F80451013403EB1543F4E700EB6F
:10248000810043EA0241C0F8041102E043EA02413C
:1024900081620020B0BDD0F8040403F006BDC1EB9A
:1024A000C10200EB8202926CD0F8040403F076BC07
:1024B000C1EBC10200EB8202D2F80822D0F804047A
:1024C00003F0BFBCD0F8040403F0F1BC10B504461F
:1024D00001F00F00090609D4C0EBC00104EB810133
:1024E000002281F8FD2101F5FE7107E0C0EBC0017B
:1024F00004EB8101012281F83D203C31087094F801
:10250000BC03012804BF022010BD012084F8BC03D5
:10251000206804F0BFF8002084F8BC0310BDB0B5FB
:102520000446626801F00F00904201D9012524E0C1
:10253000090609D4C0EBC00104EB8101002281F837
:10254000FD2101F5FE7107E0C0EBC00104EB810144
:10255000012281F83D203C31002508708D7094F8EF
:10256000BC03012801D1022507E0012084F8BC0347
:10257000206804F05BFA84F8BC532846B0BD01F033
:102580000F01C1EBC10100EB8100D0F814027047CC
:10259000B0B5044601F00F00090609D4C0EBC00134
:1025A00004EB8101002581F8FD5101F5FE7107E082
:1025B000C0EBC00104EB8101012581F83D503C31A5
:1025C0008A60CB7008704A7802B1C880022B04BFC1
:1025D0000020087194F8BC03012804BF0220B0BD9C
:1025E000012084F8BC03206803F0B4FF002084F8C5
:1025F000BC03B0BDB0B501F00F04C4EBC40100EBE7
:1026000081050021C5E98431C5F8082285F8FD114E
:1026100085F8FC41036905F5FE71012B08BFC5F87B
:102620000C220068DAB214B104F034FA01E004F0CC
:102630005FF90020B0BDB0B50446406801F00F0559
:10264000854284BF0120B0BD080609D4C1EBC1009A
:1026500004EB8000002180F8FD1100F5FE7108E018
:10266000C5EBC50004EB8000012180F83D1000F1AE
:102670003C0101200D70887094F8BC23012A04BF2E
:102680000220B0BD84F8BC03206804F0E7F92DB93E
:10269000217C206804F5717204F09CF9002084F814
:1026A000BC03B0BD70B501F00F04C4EBC40100EB76
:1026B0008105294601F83C4F0026C1E90536012372
:1026C000CA604B700369012B08BFEA640068DAB284
:1026D00014B104F0DFF901E004F00AF9002070BD44
:1026E0002DE9F04F87B004680646204604F0B2FAA0
:1026F00010B107B0BDE8F08F306804F0D7FA0028B9
:10270000F7D0306804F0D2FA01463068890703D563
:10271000416901F00201416104F0C8FA01463068E4
:10272000C906069603943ED5816921F010018161A6
:10273000246AC4F3434004F00F0506281CD0022885
:102740002BD147F6F070044027D0C5EBC50006EB4F
:102750008005D5F808120398220904F0ABFAD5F8E1
:102760000802D5F8141200EB1410C5F8080201EBAA
:102770001410C5F8140210E0039806F571710822D0
:1027800004F098FAC5EBC50006EB8000D0F81412EF
:10279000C4F30A121144C0F814123068816941F080
:1027A00010018161039C04F081FA000340F1BB80B9
:1027B000069C206804F059FA064604F5057A04F5EB
:1027C0007170039C4FF000094FF430680590002EA3
:1027D00000F0A980F00700F09E8006985FFA89FB60
:1027E0000068594604F05AFA0746C0075AD004EB6D
:1027F000080001218160069C206808EB0001036C41
:102800008A682469012C22D114072CD4940646D45A
:10281000039C12F0280F45D1E14DAB4202D312F4D4
:10282000004227D15AE90423B8F5306F13444AF81F
:102830000C3C09696FF3DF41A2EB0101CAF80010FB
:1028400028D10699D1F8101221BB01211FE0D44CE8
:10285000FF34A34212D1039C10040BD4900644BF52
:102860002020886016E0CE48039C83421AD312F4DD
:10287000004017D04FF40040886013E0039CB8F587
:10288000306F07D10699D1F8101219B90021059AB5
:1028900004F0A0F806985946FFF70AFE02E020204F
:1028A0008860039C380723D504EB08000821816069
:1028B0000698016808EB01000C6C81680904B849AE
:1028C000A1F1010504D5AC4284BF4FF40041816001
:1028D000069800F01AFBAC42039C09D906980069DF
:1028E000012805D10698059A0068012104F072F8C4
:1028F000F80642BF04EB080010218160B80642BF11
:1029000004EB080020218160B80442BF04EB0800FA
:102910004FF4005181600AF11C0A08F12008760882
:1029200009F1010953E7DDF81890D9F8000004F027
:10293000BDF9400340F1B780D9F8000004F08EF9EA
:10294000064609F57170019004F5106000230490AB
:10295000002E00F0A880F00700F0A280D9F8000057
:10296000DFB23946059304F087F90546C00729D040
:10297000059B012203F00F00D4F8341802FA00F08E
:1029800021EA0000C4F83408049800EB4310826088
:10299000D9F81000012811D1C3EBC30009EB800066
:1029A000D0E911121144816443B9D9F8500028B913
:1029B000D9F80000019A012104F00CF84846394684
:1029C000FFF76DFD059B280704D50498082100EB4F
:1029D00043108160E80604D50498102100EB4310F1
:1029E0008160680604D50498402100EB43108160A3
:1029F000A80704D50498022100EB43108160280643
:102A00004ED5C3EBC30009EB800AD3465BF8500FE9
:102A1000D84658F8042F904242D3D9F800505AF8BB
:102A2000441F841A02968C4288BF0C4605EB431162
:102A300001F510690AF1040618E0069CDAF8003086
:102A4000247C31680094841A9C4288BF1C46A3B23F
:102A500028463A4604F0DAF9306820443060D8F865
:102A600000000219C8F80020DBF80000D9F818307F
:102A7000E11C9BB2B3EB910F28BF9042DDD8DDE99A
:102A80000264DDE9053990420AD803F00F00012104
:102A900001FA00F0D5F8341821EA0000C5F834082E
:102AA0007608013354E7D9F8000004F0FFF8002855
:102AB00002D4D9F800001AE0D4F8040820F001008C
:102AC000C4F8040899F8F403012807D1002089F814
:102AD000F40348460021FFF7B9FC02E0484600F045
:102AE000F8F9D9F80000416901F00041416104F0B2
:102AF000DDF8000502D4D9F800000CE0D4F808088D
:102B0000C00702D0484600F027FAD9F80000416912
:102B100001F40061416104F0C9F8C00402D4D9F89D
:102B200000005CE0D4F80408102120F00100C4F893
:102B30000408D9F8000004F06FF8D9F8042004F56F
:102B4000106104F500604FF67F33CAB18B600C68EA
:102B5000013A24F400140C600C6844F000640C602A
:102B6000C1F80832D1F8004224F40014C1F8004240
:102B7000D1F8004244F00064C1F800422031E4E79B
:102B8000C16941F00111C161D9F8301051B1D0F8DB
:102B9000841041F00B01C0F8841000F1440108E0FA
:102BA0000B30544F416942F22B021143416100F155
:102BB00010010A6842F00B020A60016809F571729F
:102BC00021F4FE610160D9F8000099F8101003F0BB
:102BD00001FFD9F80000416901F48051416104F01E
:102BE00065F80146D9F8000089041AD503F0F0FC15
:102BF000D9F8000004F020F8C9F80C00D9F800500A
:102C000000F07CFB99F80C200146284604F086F879
:102C1000484600F049F9D9F80000416901F4005133
:102C2000416104F043F8000702D4D9F8000008E03D
:102C3000484600F052F9D9F80000416901F0080156
:102C4000416104F033F8C00202D4D9F8000009E071
:102C50004846002100F03AF8D9F80000416901F433
:102C60008011416104F022F8800202D4D9F80000FA
:102C700009E04846002100F02DF8D9F8000041692C
:102C800001F40011416104F011F8400002D4D9F8B8
:102C9000000008E04846FFF7FEFBD9F80000416954
:102CA00001F08041416104F001F840077FF521AD5A
:102CB000D9F800004468610704D54846FFF702FCD4
:102CC000D9F8000041682143416012E5D0F80404BE
:102CD00003F044B9D0F8040403F042B92DE9F04FF1
:102CE0008BB0002800F087800446056890F8BD038B
:102CF00028B9002084F8BC03204600F08BF803209C
:102D000084F8BD03E86BC0055CBF0020206120682B
:102D100003F0E8FD206804F1140E0A90D4E90C5089
:102D200004F1040B9EE8C05004F1240A9BE80E084D
:102D30009AE80007CDE9085002A8CDE900B680E87E
:102D4000805005A880E800070A9803F051FC00288D
:102D50004ED120680021002503F0B9FF61680120F1
:102D60000022D3B2994210D9C3EBC30604EB860606
:102D7000A6F8423086F83C2086F83D003565C6E965
:102D8000115586F83F500132EBE700200022D3B204
:102D900099420FD9C3EBC30304EB8303C3F81002BA
:102DA000C3E9810083F8FF0183F8FC2183F8FD016A
:102DB0000132ECE7A06804F1140E0A90D4E90C503B
:102DC000D4E9033B9EE8C05004F1240A22689AE843
:102DD0000007CDE9085002A8CDE900B680E8805090
:102DE00005A880E8000710460A9A03F0B7FC38B13E
:102DF000022084F8BD03012528460BB0BDE8F08F02
:102E00000025012084F8385084F8BD03206803F0C1
:102E100097FCF1E7F0B587B0044602A81421FDF74E
:102E20002BFA20681D49884235D100271C4E019796
:102E300030681C4C40F002003060306802AD00F099
:102E4000020001900C2006900220CDE90477039047
:102E50004FF450400290019820462946FEF7DEFBD1
:102E60004FF40050CDE90377029020462946FEF743
:102E7000D5FB01973068012140F000503060306888
:102E8000002200F00050019001984D20FFF7B2FAA7
:102E90004D20FFF7A1FA07B0F0BD00BF00000440CD
:102EA000303802400004024010B50446C06828B122
:102EB000022801D0FDF7C5FE012100E00021D4F871
:102EC000040403F0A3F8D4F80404BDE8104003F0B0
:102ED0005EB8D0F8040403F083B8D0F8040403F01B
:102EE00089B810B5044690F8BC03012804BF02203D
:102EF00010BD012084F8381084F8BC03206803F06A
:102F0000FDFE002084F8BC0310BDD0F8042400F5B9
:102F10007171104603F086B810B5044690F8BC03F2
:102F2000012804BF022010BD0121206884F8BC13D1
:102F3000A16A012906D1A169012903D0816B41F45D
:102F40008031816303F054FE206803F0EBFB002026
:102F500084F8BC0310BD000010B50446D0F804048A
:102F600003F0A0F82068D0F8001E41F00101C0F87D
:102F7000001E206A20B10348016841F0060101608B
:102F800010BD00BF10ED00E0F8B504460068CA4E61
:102F900010F0430F49D07D4F00203860FEF718FC39
:102FA00005463068000105D5FEF712FC401B0228DB
:102FB000F7D9A9E02068C10706D0D4E901121207A9
:102FC00042EA8111C6F88410810714D56168E2686D
:102FD000E369D6F8845005F0E04545EA811141EAFD
:102FE0000261C6F88410D6F88C20591E22F01F0208
:102FF0001143C6F88C10400608D5221D07CA1206D8
:1030000042EA801040EA0170C6F88400012038606E
:10301000FEF7DEFB05463068000105D4FEF7D8FB5D
:10302000401B0228F7D96FE0206810F00C0F4ED03B
:10303000564F0020B860FEF7CBFB05463068800095
:1030400005D5FEF7C5FB401B0228F7D95CE02068D8
:10305000410717D5D4E90412236AD6F8885005F041
:10306000E04545EA811141EA0261C6F88810D6F8C8
:103070008C206FF0FF0101EB032122F4F852114381
:10308000C6F88C10000713D52069A169626AD6F8CA
:10309000883003F0706343EA801040EA0170C6F89C
:1030A0008800D6F88C0020F440301043C6F88C001D
:1030B0000120B860FEF78CFB05463068800005D41F
:1030C000FEF786FB401B0228F7D91DE02068810629
:1030D00053D500200090306C2D4F40F0805030646C
:1030E000306C00F0805000900098386840F4807098
:1030F0003860FEF76DFB05463868C00506D4FEF75C
:1031000067FB401B0228F7D90320F8BD306F10F48D
:1031100040701FD0A16A01F4407188421AD0306F0C
:103120001C4901220A60002220F440700A603067C6
:10313000306FC0070ED0FEF74BFB054641F28837D3
:10314000306F800706D4FEF743FB411B0320B942D2
:10315000F6D91AE02068A16AB3680F4A23F4F8137D
:1031600001F440750A40B5F5407F08BF1343B360D2
:10317000326F6FF31F3111433167C00604D594F8E5
:103180002C000449C1F8A0030020F8BD68004742A4
:1031900000700040400E4742FFFCFF0F2DE9F04158
:1031A000002800F08680444B0446D3F8000488468B
:1031B00000F00F00884207D283F80084D3F800049F
:1031C00000F00F00404574D12068810711D54107F8
:1031D00003D5996841F4E0519960010703D59968D6
:1031E00041F460419960A1689A6822F0F0021143AD
:1031F0009960C0072BD06068811E022903D219682C
:10320000890109D455E0012803D11968890303D441
:103210004FE0196889074CD599681D4621F00301D4
:1032200008439860FEF7D4FA064641F28837606892
:10323000A9682B4601F00C01B1EB800F07D0FEF717
:10324000C7FA801BB842F2D90320BDE8F081D3F859
:10325000000400F00F00404507D983F80084D3F83C
:10326000000400F00F00404523D12068410705D538
:10327000E1689A6822F4E05211439960000706D58C
:103280002069996821F4604141EAC00098601C46B9
:1032900000F048F8A168094AC1F30311515CC84025
:1032A0001D49086006480068FEF75EFE0020BDE884
:1032B000F0810120BDE8F081003802403873000839
:1032C0000C00002010B50F220260144A4FF4E054A5
:1032D000136803F003034360136803F0F003836093
:1032E000136803F4E053C360136804EAD303036173
:1032F000D2F8F80300F00F00086010BD064800681F
:10330000704700BF0448054900680968044AC1F3D2
:103310008221515CC84070474C00002008380240B0
:103320004873000810B5134C606800F00C01124897
:10333000082903D004291CD1104810BD2168236836
:1033400001F03F0221685B02C1F3881105D4A1FBA3
:1033500000010023FCF746FF03E008484843B0FBA8
:10336000F2F021680222C1F3014102EB4101B0FBFE
:10337000F1F010BD043802400024F40000127A007D
:103380002DE9FC41002800F0C88004460078BE4EBC
:10339000C00744D0B06800F00C00042805D13068A4
:1033A00080033CD56068D0BBB7E0B06800F00C008B
:1033B000082802D170684002F1D46768B7F5803FF1
:1033C00006D03068B7F5A02F12D140F480203060CD
:1033D000306840F480303060FEF7FAF90546306816
:1033E00080031CD4FEF7F4F9401B6428F7D9D7E01A
:1033F00020F480303060306820F480203060FEF7A8
:10340000E7F90546002FEAD106E0FEF7E1F9411B96
:103410000320642900F2368130688003F5D42078D7
:1034200080072CD5B06810F00C0F07D0B06800F002
:103430000C00082809D17068400206D43068800763
:1034400016D5E068012813D067E0E068002800F096
:10345000C8808E4801210160FEF7BAF90546306840
:10346000800705D4FEF7B4F9401B0228F7D997E08E
:103470002069316821F0F80141EAC000306020780D
:10348000000720D56169814871B10121C0F8801E13
:10349000FEF79EF90546706F800714D4FEF798F981
:1034A000401B0228F7D97BE00021C0F8801EFEF700
:1034B0008FF90546706F800705D5FEF789F9401B27
:1034C0000228F7D96CE02078400729D4A769002F9B
:1034D00000F0D780B06800F00C00082863D1012FFD
:1034E0001BD0E169706800F480028A4215D1216A1C
:1034F00000F03F028A4210D147F6C071626A014073
:1035000091420AD1A16A00F440328A4205D1E16AAF
:1035100000F07060884200F0B4800120BDE8FC81BA
:10352000306C4FF00008C0000CD4CDF80480306C33
:103530004FF0010840F080503064306C00F0805053
:1035400001900198524F3868C0050FD4386840F494
:1035500080703860FEF73CF905463868C00505D430
:10356000FEF736F9401B0228F7D919E0A768012FAA
:1035700005D0306F052F45D140F004003067306F23
:1035800040F001003067FEF723F9054641F2883725
:10359000306F80074ED4FEF71BF9401BB842F7D9B5
:1035A0000320BDE8FC813949002088460866FEF703
:1035B0000FF90546022F0AD147463068800142D5EF
:1035C000FEF706F9411B03200229F6D95AE03068BC
:1035D000800156D5FEF7FCF8411B03200229F6D9DD
:1035E00050E02A4800210160FEF7F2F805463068F5
:1035F00080077FF544AFFEF7EBF8411B032002295B
:10360000F5D93FE020F001003067306F20F0040072
:103610003067FEF7DDF80546002FB7D141F2883755
:10362000306F800706D5FEF7D3F8411B0320B9425F
:10363000F6D927E0B8F1000F3FF448AF306C20F026
:103640008050306442E71C341FCC084340EA8210AB
:10365000D9034FF6FF72914340EA0460A1F580312F
:103660000843706001203866FEF7B2F804463068FF
:10367000800106D4FEF7ACF8011B03200229F6D91D
:1036800000E00020BDE8FC81003802400000474215
:1036900000700040E0B1B0B5044690F82C000D4633
:1036A00028B9002084F82D00204600F013F80220ED
:1036B00084F82C002068211DFDF7C4FAD4E900022B
:1036C0002946FDF72BFB012084F82C000020B0BD1B
:1036D000012070472DE9F04F87B002A81421FCF7B4
:1036E000CBFD30480178002959D14FF0010B80F80B
:1036F00000B04FF0000A2C48CDF804A001684FF04C
:103700000C0841F00101016000684FF0030900F06E
:103710000100019002274FF63F00CDF81880CDE957
:1037200004A903970290214C019802ADD64E04F5EE
:1037300080502946B04704F580602946CDF81880AE
:10374000CDE904A9CDE902B7B04748F23310CDE97D
:103750000598CDE9037A029004F5A0502946B047B8
:103760004FF68370CDE90598CDE9037A029004F510
:1037700040602946B0474CF20370CDE90598CDE989
:10378000037A029004F500602946B0476020CDE935
:103790000598CDE9037A029020462946B04707B044
:1037A000BDE8F08F340300203838024000040240A6
:1037B00010B590F82C2004460220022A08D084F884
:1037C0002C002068FDF77EFA012084F82C000020F0
:1037D00010BDB0B50D4690F82C1004460220022909
:1037E0000ED084F82C0020682946FDF771FA28686D
:1037F000012102284FF0000008BF052184F82C1099
:10380000B0BD98B110B50446022084F8510020687C
:10381000016821F040010160204600F049F80020D5
:10382000606584F8500084F8510010BD0120704795
:1038300090F851007047F8B5B0B300248462054693
:1038400090F8510000284FF0000005D1284685F877
:10385000504000F063F8A86A022185F8511095E8FD
:103860004E001A430F68324327F040070F602B6960
:103870001A436B691A43AB6903F400763243EE696D
:1038800032432E6A32431043086004206A6A00EA19
:10389000134010434860C86920F40060C8610120EB
:1038A0006C6585F8510000E001242046F8BD000059
:1038B000B0B5044600686E4988421AD06D49884206
:1038C00018BFB0BD13486D4C0168134D21F4004181
:1038D000016020464FF40041A84704F500604FF412
:1038E0000061A84704F5806008212A46BDE8B04081
:1038F00010470848416821F4005141605F48542155
:1039000000F58050FDF7D4FDE06CBDE8B040FDF758
:103910004BBC00BF40380240B11400082DE9F0470D
:1039200086B0044601A81421FCF7A6FC2068504983
:10393000884257D04F49884240F0978000264E4831
:10394000009601694D4C41F40041016101694FF05D
:10395000060801F4004100910099009601684FF0BB
:10396000030941F0010101600168022701F0010132
:10397000009100990096016801AD41F004010160D9
:103980000168DFF854AF01F004010091009900963E
:10399000016841F0020101600068294600F0020060
:1039A000009000984FF40040CDF81480CDE90369F1
:1039B000029701902046D0474FF40060CDE904986B
:1039C000CDE90276019004F500602946D047082031
:1039D000CDE90498CDE90276019004F5806029468E
:1039E000D04742E0002624480096416941F4005146
:1039F0004161416901F4005100910099009601680C
:103A000041F010010160006801A900F01000009071
:103A1000052005900320CDE9036002200290542088
:103A200001900098154800F58050FDF7F7FD144D02
:103A300014484FF00067C5E908664FF4807C4FF4E6
:103A400000514FF400624FF48063C5E90007284637
:103A5000C5E90266C5E90432C5E9061CFDF78AFC22
:103A600008B1FDF7EEF8AC63E56406B0BDE8F08799
:103A700000340140003C0040303802400000024069
:103A8000AC190020106402401D1600082DE9F8430F
:103A9000044640681D4617460E46B0F5827F02D1A7
:103AA000A06800287BD094F85000012804BF0220B1
:103AB000BDE8F8834FF0010984F85090FDF788FEC7
:103AC000804694F85100012861D10120002E5FD07A
:103AD000002F5DD0042084F8510000206065E78746
:103AE000A787A663A0862063C4E91000E086A168CA
:103AF0002068B1F5004F03D1016821F480410160D5
:103B00000168490603D4016841F040010160E068A2
:103B10006E1C60B3E08F68B320688168C90708D164
:103B2000FDF756FE002EF5D0A0EB0800A842F1D319
:103B300041E0A16BC06821F8020BA163E08F01385E
:103B4000E087E7E720688168C90707D1FDF740FEF5
:103B50006EB1A0EB0800A84209D32CE0007BA16B5A
:103B60000870A06B0130A063E08F0138E087E08F20
:103B70000028E7D120462946424601F0FAFA08B16A
:103B800020206065606D002818BF012000E0022041
:103B9000002184F8501084F85190BDE8F883042087
:103BA00084F851002046314632463B46009500F0ED
:103BB000B2F8BDE8F8830320EAE72DE9F8430446AC
:103BC00090F85000012804BF0220BDE8F8834FF0B0
:103BD00001091D4616460F4684F85090FDF7F8FD82
:103BE000804694F85100012851D10120002F00F0A7
:103BF0008B80002E00F08880032084F85100002084
:103C00006065E686A6862763A087A063C4E91000E6
:103C1000E087A1682068B1F5004F03D1016841F445
:103C2000804101600168490603D4016841F0400108
:103C300001606168731EE268B1FA81F1B3FA83F33F
:103C400049095B091943B2F5006F22D131B137F848
:103C5000021BC1602763E08E0138E0866E1CE08E97
:103C6000D0B320688168890708D4FDF7B1FD002E24
:103C7000F5D0A0EB0800A842F1D344E0216B31F865
:103C8000022BC2602163E08E0138E086E7E7022064
:103C90003AE039B139780173206B01302063E08E4E
:103CA0000138E0866E1CE08EB0B12068816889071B
:103CB00008D4FDF78DFD002EF5D0A0EB0800A8423A
:103CC000F1D320E0216B09780173206B0130206370
:103CD000E08E0138E086E6E720462946424601F0BC
:103CE00071FA08B120206065A06838B90020009002
:103CF0002068C1680091806800900098606D00287D
:103D000018BF012000E00320002184F8501084F83F
:103D10005190BDE8F8832DE9F843044690F850002F
:103D2000012804BF0220BDE8F88301201E46154685
:103D30000F4684F85000FDF74BFD94F85110814672
:103D4000012969D10120002F00F0AF80002D00F083
:103D5000AC80002E00F0A98094F8510004281CBF0C
:103D6000052084F8510000206065E687E686A5639B
:103D7000A6872763C4E91000A68620680168490663
:103D800003D4016841F0400101606168731EE2687C
:103D9000B1FA81F1B3FA83F3DDF8208049095B09B8
:103DA0001943B2F5006F45D131B137F8021BC1603C
:103DB0002763E08E0138E086012608F10105E08ED8
:103DC00010B9E08F002878D02068816889070CD569
:103DD000E18E012E09D141B1216B002631F8022B71
:103DE000C2602163E18E0139E1868168C9070AD08A
:103DF000E18F41B1A16BC068012621F8020BA163DC
:103E0000E08F0138E087FDF7E3FC002DD7D0A0EB71
:103E100009004045D3D347E06068B0F5827F07D101
:103E20000220042941D1A16800293FF48BAF3CE076
:103E300002203AE039B139780173206B01302063F8
:103E4000E08E0138E086012608F10105E08E08B910
:103E5000E08F90B32068816889070ED5E18E012E2E
:103E60000BD151B1216B002609780173216B2068B9
:103E700001312163E18E0139E1868168C9070BD0E8
:103E8000E18F49B1A16BC06801260870A06B0130B9
:103E9000A063E08F0138E087FDF79AFC002DD5D0B4
:103EA000A0EB09004045D1D30320002184F8501035
:103EB000012184F85110BDE8F883204641464A4666
:103EC00001F080F918B1202060650120EDE7A168BC
:103ED00000200029E9D100902168CA680092896811
:103EE00000910099E1E770477047000010B590F825
:103EF0003C300222012B30D080F83D20012280F896
:103F00003C2002680B685468B2F1804F24F07004C2
:103F100044EA03049368546014D0454CA24211D083
:103F2000F94CA2420ED0414CA2420BD00C4CA24202
:103F300008D00C4CA24205D00B4CA24202D00B4C34
:103F4000A24204D1496823F0800319439160002202
:103F5000012180F83C2080F83D10104610BD00BFC4
:103F600000180040000001400040014000040140F2
:103F7000B0B110B5044690F83D0028B9002084F88F
:103F80003C00204600F00EF8022084F83D00206836
:103F9000211D01F0C5FA012084F83D00002010BD6C
:103FA000012070471FB500682049884216D0D649C5
:103FB000884222D01E49884218BF1FBD00200390AE
:103FC0001C481D24016841F00201016000680121C4
:103FD00000F00200039003981D201DE000200190D6
:103FE00014483224016841F008010160006800F0C3
:103FF00008000190019832200DE0002002900D4849
:104000001E24016841F004010160006800F0040012
:10401000029002981E2000210022FEF7EBF92046B4
:1040200004B0BDE81040FEF7D7B900BF000C004057
:1040300000040040403802400068C16841F00101BE
:10404000C160816801F00701062903D0016841F0D1
:104050000101016000207047B0B590F83C20044693
:104060000220012A21D084F83D00012084F83C0080
:1040700020684FF67775024652F8083FAB4313604D
:104080000B682BB1102B03D0202B18BF302B0DD178
:10409000106820F07000184340F007001060002006
:1040A000012184F83C0084F83D10B0BD402B17D0AE
:1040B000502B22D0602B2DD0B3F5005F37D0702B62
:1040C000EDD1D1E90103C968184340EA0120116824
:1040D00021F47F4108431060106840F07700DDE76D
:1040E0004B68CA68194601F033FB226852F8080F82
:1040F00040F0470020F03000D0E74B68CA6819460E
:1041000001F026FB226852F8080F40F0570020F01B
:104110002000C3E74B68CA68194601F02AFB2268F1
:1041200052F8080F40F0670020F01000B6E7D1E920
:104130000103C968184340EA0120116821F47F4156
:1041400008431060106840F48040A7E7704710B53E
:10415000044600680169890744BFC1685FEA81714C
:1041600039D40169490744BFC1685FEA41713ED44F
:104170000169090744BFC1685FEA017144D401695C
:10418000C90644BFC1685FEAC16149D40169C90772
:104190001CBFC1685FEAC1714FD10169090644BF04
:1041A000C1685FEA016150D40169490644BFC16832
:1041B0005FEA416151D40169890644BFC1685FEA81
:1041C000816100D410BD6FF0200101612046BDE87F
:1041D0001040FFF789BE6FF00201016101212177D4
:1041E0008069800741D02046FFF7B0FF43E06FF0C1
:1041F0000401016102212177806910F4407F3ED0E3
:104200002046FFF7A3FF40E06FF0080101610421A1
:104210002177C06980073CD02046FFF797FF3EE03A
:104220006FF01001016108212177C06910F4407F0F
:1042300039D02046FFF78AFF3BE06FF001010161B2
:10424000204600F061F92068A7E76FF08001016166
:104250002046FFF748FE2068A6E76FF040010161A5
:10426000204600F0A3F92068A5E7204600F050F8AA
:10427000204600F0DDF800202077206871E7204616
:1042800000F046F8204600F0D3F8002020772068A0
:104290006EE7204600F03CF8204600F0C9F8002008
:1042A000207720686BE7204600F032F8204600F0C7
:1042B000BFF800202077206868E7000010B586B0BE
:1042C000044601A81421FBF7D7FF21680E4881425C
:1042D00017D100210D4A0091136800F5FE3043F01C
:1042E00002031360126802F0020200920222CDE97A
:1042F0000412CDE9022180210191009901A9FDF765
:104300008DF906B010BD00BF0008004030380240F3
:104310007047F8B1B0B5044690F83D000D4628B995
:10432000002084F83C00204600F016F8022084F8B3
:104330003D002068211D01F0F3F82068016821F09C
:1043400008010160016829430160012084F83D00F3
:104350000020B0BD012070477047000070B50D46C9
:1043600090F83C1004460220012944D084F83D0016
:104370004FEAB2000126032884F83C6036D8DFE813
:1043800000F0020A12222068294601F031F9206863
:1043900050F8181F0EE02068294601F053F92068F4
:1043A00050F8181F16E02068294601F07BF92068B4
:1043B00050F81C1F41F008010160016821F0040160
:1043C000016029690FE02068294601F09DF9206805
:1043D00050F81C1F41F400610160016821F4806104
:1043E000016029690902026811430160002084F814
:1043F0003C0084F83D6070BDB0B110B5044690F843
:104400003D0028B9002084F83C00204600F00EF85A
:10441000022084F83D002068211D01F081F8012070
:1044200084F83D00002010BD012070477047000057
:10443000B0B500683049884200D0B0BD2F48007840
:1044400002280AD1584801228188012300EB41004B
:1044500000F108012A48FFF719FB5348818831B35E
:10446000172924D02E2922D0452920D05C291ED0FE
:1044700073291CD08A291AD0A12918BFB82916D0AF
:10448000CF2914D0E62912D0FD2910D0B1F58A7FAA
:104490000DD040F22B12914209D0B1F5A17F06D088
:1044A00040F25912914218BFB1F5B87F11D11722CD
:1044B00000EB4103B1FBF2F21C89124D25F81240CA
:1044C00000221A810022B1F5F17F98BF4A1C828038
:1044D000B0BD40F287129142E9D0B1F5CF7FE6D06E
:1044E00040F2B5129142E2D040F2E3129142DED0A6
:1044F000B1F5E67FDBD0E5E7000C004010000020BE
:10450000441F0020F42000202DE9FC4704460068E9
:10451000234FB8423BD107F505304FF48041FDF7FA
:104520004BF9204D00208DF807002846FDF794F93F
:104530000DF107084FF00A0A2846302142460123B0
:10454000CDF800A0FDF7A8FBDFF85C90284609F540
:10455000F36230211823CDF800A0FDF739FA0120CD
:10456000FCF794FF642628463021424601238DF84B
:104570000760CDF800A0FDF78FFB09F1080228467F
:1045800030214FF472730096FDF722FA206807F588
:104590004061884208BFFDF7C1FCBDE8FC8700BF51
:1045A000000400400C1A0020202100207047FEE784
:1045B0000268516949054FF000010FD56FF480631F
:1045C00053612022016380F83D2080F83E1080F87E
:1045D0003C10016C41F00401016401210846704760
:1045E000F8B515460E4604464F1C20684069400742
:1045F0001AD42046FFF7DCFFA0B9002FF5D0FDF755
:10460000E7F816B1401BB042EFD90020202120630B
:1046100084F83D1084F83E0084F83C00206C40F0A3
:10462000200020640120F8BD0020F8BD2DE9F047EE
:10463000DDF820909A46164680468FB201F47F043A
:104640005D1C1820B4F5803F08BF1420D8F8001076
:1046500008583840C01BB0FA80F04009B0421DD164
:10466000002DEED0FDF7B4F8BAF1000F03D0A0EBA7
:1046700009005045E5D900202021C8F8300088F80D
:104680003D1088F83E0088F83C00D8F8400040F023
:104690002000C8F840000120BDE8F0870020BDE8F8
:1046A000F0872DE9F8439846164681468FB201F40B
:1046B0007F05541CD9F80000B5F5803F0CBF416957
:1046C00081693940B9421AD0416949051AD4002C90
:1046D000F0D0FDF77DF81EB1A0EB0800B042E9D99B
:1046E00000202021C9F8300089F83D1089F83E00EB
:1046F00089F83C00D9F8400040F0200017E0002085
:10470000BDE8F883016841F4007101606FF48061D5
:10471000416100202021C9F8300089F83D1089F856
:104720003E0089F83C00D9F8400040F00400C9F888
:1047300040000120BDE8F88370B515460E460446DA
:1047400020684169490613D44169C90612D4FDF7AE
:104750003FF816B1401BB042F2D90020202120635F
:1047600084F83D1084F83E00206C40F020000CE0FE
:10477000002070BD6FF010014161002020212063F6
:1047800084F83D1084F83E00206C2064002084F8FA
:104790003C00012070BDF8B515460E4604464F1C7E
:1047A0002068406900061AD42046FFF701FFA0B92F
:1047B000002FF5D0FDF70CF816B1401BB042EFD931
:1047C00000202021206384F83D1084F83E0084F806
:1047D0003C00206C40F0200020640120F8BD002047
:1047E000F8BDF0B55200002337240025AA4208BFC7
:1047F000F0BD04EB1076070FB0F1204F38BF07F182
:1048000030064E5545F001068B5502350001EDE7A7
:10481000FCF73CBE2DE9F04F87B02E480178002907
:1048200055D14FF001090025CE4F80F80090019539
:1048300038684FF0020A40F0080038603868574C7A
:1048400000F0080001904FF40050CDF814A0CDE91D
:1048500003950290019804F580660DF10808DFF8D1
:1048600074B530464146D84701953868414640F016
:1048700008003860386800F0080001904FF480505C
:10488000CDF814A0CDE90395029001983046D847A1
:1048900001953868414640F004003860386800F0FF
:1048A000040001900420CDF814A0CDE903950290F6
:1048B00001982046D847204604210022FCF783FFB8
:1048C000204604210122FCF77EFF00F0EFFC07B038
:1048D000BDE8F08F350300201D160008F8B52F4CF9
:1048E0000E460746204604210022FCF76CFF04F523
:1048F000806528464FF400510022FCF764FF3846DB
:1049000000F01CFD0B48694603680B483246FFF770
:10491000BDF808B100F0C2FC009E28464FF40051DB
:104920000122FCF750FF204604210122FCF74BFF37
:104930003046F8BD48000020E003002070B5174C59
:10494000174E054604F580604FF400510122B04730
:10495000204604210022B047284600F0EFFC204604
:10496000042101223346BDE87040184770B50B4C56
:104970000B4E054604F580604FF400510022B0470D
:10498000204604210022B047284600F0D7FC2046EC
:10499000042101223346BDE8704018470008024058
:1049A000C71700080148FDF758BB00BF601A002078
:1049B000F0B5046804EBC213E068D3F8882002F471
:1049C0007042C3F88820404AD1E9026700EA020534
:1049D000D1E900C2E06805EB0245C0F30B4060443A
:1049E00001302843C3F88800E068D3F88C506FF397
:1049F000DF2005F47045C3F88C50E46838446FF349
:104A0000DF243444013444EA0040C3F88C00D3F876
:104A1000940020F00700C3F894000C69C3F8944098
:104A2000D3F89C000020C3F89C0091F8326091F804
:104A30003150360446EA05258E69072C45EA06659D
:104A400091F830603544C3F89C50D3F8985040F248
:104A5000077625F0FF05C3F898504D69C3F89850C4
:104A6000D3F8A05025EA0605C3F8A050D1E90756AF
:104A700045EA0605C3F8A050D3F8AC50C3F8AC0023
:104A8000486AC3F8AC0003F1840303D80F4850F818
:104A9000244000E00124D86AA2EB0C0200F0E020E0
:104AA000D862D1E90A0162436043033242EA00401E
:104AB000D862186B40F2FF7290431863196318684C
:104AC00040F001001860F0BD0000FF0F7C9200086C
:104AD00080B50D480D4A0021C0E90021C0E902114E
:104AE000C0E90A11C0E90C11FCF785FA08B1FCF71E
:104AF000A8F805480121FCF799F918B1BDE88040F4
:104B0000FCF79FB880BD00BF0C19002000B0024028
:104B1000E0B50020AB4901900A6842F480020A60C7
:104B20000A6802F480020192019A0090086800224B
:104B300040F4001008600868002100F400100090A4
:104B400000980D20FDF756FC0D20FDF745FC3820A0
:104B500000210022FDF74EFC3820BDE88C40FDF717
:104B60003BBC00BF30380240F0B587B014484FF46A
:104B7000005100224FF40063124FC0E908328162F5
:104B80004FF4C0714023102404250126C0E90076AB
:104B9000C0E90225C0E90443C0E90612022103224C
:104BA000CDE905110492072203928DE8260069469B
:104BB000FEF770FD08B1FCF744F807B0F0BD00BF88
:104BC000101F0020400100A02DE9F04F89B0002601
:104BD0007C48CDE90766039601687B4C41F01001E3
:104BE0000160016804F5006501F01001039103996B
:104BF00003960168754F41F00401016001680022CD
:104C000001F00401039103990396016841F020012A
:104C10000160016801F02001039103990396016886
:104C200041F080010160016801F080010391039966
:104C30000396016841F001010160016801F0010182
:104C4000039103990396016841F002010160016834
:104C500001F00201039103990396016841F04001BC
:104C60000160016801F04001039103990396016816
:104C700041F0080101600068162100F0080003906F
:104C800003982846B84704F5406A50464FF440510F
:104C90000022B84704F5C0504FF4C04100220290F2
:104CA000B84704F58060102100220190A046B84763
:104CB0004748069605900446282004AFDFF814B153
:104CC000049008F580503946D8474FF40050CDE99C
:104CD0000546049028463946D8470520089002200A
:104CE000CDE9066605904FF46070049008F5A05079
:104CF0003946D8474FF001091620CDE90666CDF8B0
:104D00001490049028463946D847404639460696BE
:104D1000CDE90494D84704F5803006960590062026
:104D2000049040463946D847019D0420CDE90566E8
:104D3000049028463946D8474FF40060CDE905660F
:104D4000049050463946D8474FF440500796CDE975
:104D50000596049050463946D8470720089003200E
:104D6000CDE90660022005904FF4C06004904046F3
:104D70003946D8474FF4C0400796CDE905960490D0
:104D800002983946D84710200796CDE90596049039
:104D900028463946D847104C062001210022A0475A
:104DA0000E4D0620A847092000210022A047092017
:104DB000A847282000210022A0472820A84709B0A2
:104DC000BDE8F08F3038024000000240C7170008ED
:104DD000000011101D160008F5230008D923000853
:104DE00010B51248124B134C00214FF48042C0E919
:104DF0000043C0E90211C0E90421C0E906110162C3
:104E0000FCF72AFD08B1FBF71CFF08480021FCF75E
:104E1000E5FC08B1FBF715FF04480021FCF7FCFC9A
:104E200018B1BDE81040FBF70CBF10BD0C1A0020F4
:104E3000A0860100005C0040F0B58DB068463421CA
:104E4000FBF71AFA20480024204940F2471240F2AA
:104E5000171340F2431540F20D16032780F8364031
:104E60008486C0E90876C0E90A5302631D22012343
:104E70000925C0E90014C0E90244C0E90445C0E9BD
:104E80000632FDF745F908B1FBF7DBFE0520099472
:104E900008904FF48060CDE906404FF4A070CDE952
:104EA0000444CDE90240F020CDE9004006486946BF
:104EB0000022CDE90A44CDF82F40FDF793F808B160
:104EC000FBF7BFFE0DB0F0BD601A00200068014086
:104ED00070B50F480A2100220E4EC0E90822C0E931
:104EE0000A2108214FF400634FF480644FF4827567
:104EF000C0E90065C0E90243C0E90422C0E9062117
:104F0000FEF799FC18B1BDE87040FBF79ABE70BD82
:104F1000441F0020003C004010B50D480A2100222B
:104F20000C4CC0E90822C0E90A214FF400614FF49B
:104F30008063C0E90042C0E90231C0E90422826115
:104F4000FEF779FC18B1BDE81040FBF77ABE10BD42
:104F50009C1F00200034014010B586B01648802107
:104F6000164C816100218B224EF65F23C0E900437D
:104F7000C0E902120161CDE90411CDE90211CDE9C8
:104F80000011FEF7F5FF08B1FBF75BFE4FF4805010
:104F90000290094802A9FFF75FF808B1FBF751FE3C
:104FA0000020CDE9000004486946FEF79FFF08B1E4
:104FB000FBF747FE06B010BDF41F002000040040C0
:104FC00010B58EB0002401A81C21CDE90C44CDE918
:104FD0000A44CDE90844FBF74FF922488021224AD0
:104FE000816140F27F21C0E90024C0E902410461EF
:104FF000FEF7BEFF08B1FBF724FE4FF480500A9085
:1050000018480AA9FFF728F808B1FBF71AFE154857
:10501000FFF7F2F908B1FBF714FE12480821FFF779
:1050200078F908B1FBF70DFE0E48002408A9CDE978
:105030000844FEF75BFF08B1FBF703FE022005946E
:1050400003900120029060200190064801A90422EB
:10505000FFF784F908B1FBF7F4FD0248FFF72EF9DA
:105060000EB010BD342000200008004010B58EB0F6
:10507000002401A81C21CDE90C44CDE90A44CDE966
:105080000844FBF7F9F82048204A4FF41671846170
:10509000C0E90024C0E902410461FEF769FF08B1DC
:1050A000FBF7CFFD4FF480500A9017480AA9FEF78E
:1050B000D3FF08B1FBF7C5FD1348FFF79DF908B111
:1050C000FBF7BFFD10480821FFF723F908B1FBF7F4
:1050D000B8FD0D48002408A9CDE90844FEF706FFF5
:1050E00008B1FBF7AEFD4FF41670059403940290DF
:1050F00060200190044801A90022FFF72FF908B1B0
:10510000FBF79FFD0EB010BD74200020000C004086
:1051100080B50F480F49012200F016FE08B1FBF7D9
:1051200090FD0B480C4900F0DAFF08B1FBF789FD50
:1051300007480A4900F0ABFC08B1FBF782FD0448C0
:1051400000F0E6FF18B1BDE88040FBF77ABD80BDF6
:105150003C16002024000020500000207401002094
:10516000FEE770470148FDF7BBBA00BF081B0020EF
:105170007047B0B50446406813460A46B0F5827FD2
:105180000ED1A068B0F5004F02D0B0F5806F0AD103
:105190002168B0F5806F0D6825F040050D6002D1E3
:1051A0002046012101E02046802100F037F8002848
:1051B0000FBF0020606D40F02000606518BF032025
:1051C000B0BD00001CB50446124813460A460068EC
:1051D0001149B0FBF1F04FF47A71484301906068D7
:1051E000B0F5827F0AD12046802100F017F870B117
:1051F000606D40F02000606503201CBD019830B157
:10520000019801380190206880680006F6D40020DB
:105210001CBD00BF4C00002000366E012DE9F0419E
:10522000984616460F460446551C2068806838404C
:10523000B84230D1002DF8D0FCF7CAFAA0EB080034
:10524000B042F2D3D4E900014268B1F5827F22F086
:10525000E00242600AD1A168B1F5004F02D0B1F579
:10526000806F03D1016821F040010160A16AB1F5AE
:10527000005F07D1016821F400510160016841F429
:1052800000510160002084F85000012084F8510092
:105290000320BDE8F0810020BDE8F08180B53048F2
:1052A000FEF7AFFABDE88040AFF30080B0B586B03E
:1052B0002B4C2046FEF7BCFAD0BB1E480022072329
:1052C0001821C4E90822C4E90A234FF400734FF4FB
:1052D0008275C4E90005C4E90222C4E90422C4E9D4
:1052E0000631154901924B6900F5444043F480139F
:1052F0004B614B6903F480130193019B00920A6890
:1053000042F020020A60096801F0200100910521A5
:105310000591012104910221CDE902114FF4607140
:105320000191009901A9FCF779F92046FEF783FA6B
:1053300006B0B0BD0050014030380240E0B5ADF8D5
:10534000060006480DF10601036805480122FEF734
:1053500034FC08B1FFF7A2FF8CBD00BF480000205D
:10536000E0030020704700002DE9F84F2E4D044661
:1053700000F108064FF000094FF4727A4FF00A0B63
:10538000B9F1160F24D009EB8900462101EB400743
:105390004FF00008B8F1160F16D0A07910FB0A6084
:1053A00010F81800684340F07F40FBF7FFF908EB66
:1053B00088000BEB400080B2B9B20A220A23FBF747
:1053C0008DF808F10108E5E72C3609F10109D7E766
:1053D00004F5F3644FF000094FF491784FF01E0A82
:1053E000B9F1020F08BFBDE8F88F09EB890008EB9F
:1053F00040060027122F13D004EB47004078684383
:1054000040F07F40FBF7D2F907EB87000AEB400042
:1054100080B2B1B20A220A23FBF760F80137E9E74C
:10542000243409F10109DBE70101010070B59EB0E8
:1054300001AC0025201D2C21CDE91655CDE91455D0
:10544000FAF71AFF21480D950168022641F08051B4
:105450000160006800F080500D900D981C480D957B
:10546000016841F440410160006800F440400D9043
:1054700007201D90A8201C961B9004201A904FF422
:105480008000CDE918604FF4803013900120129015
:105490000D9812A8FDF774FF4FF4805011904FF44F
:1054A000A05010900F20CDE90E650D900DA805219C
:1054B000FDF774FE32200A950796059008200190AA
:1054C0002046FDF761FD1EB070BD00BF40380240B0
:1054D000007000400548D0F8801041F47001C0F819
:1054E00080104FF000610160704700BF08ED00E0E0
:1054F0000148FEF72CBE00BFF41F00200148FEF754
:1055000026BE00BF342000200148FEF720BE00BFA9
:10551000742000200148FEF71ABE00BFB42000200E
:10552000B0B50268B0F1804F0ED0274B98420BD037
:10553000264B984208D0264B984205D0834B984280
:1055400002D0244B984203D14B6822F070021A43D8
:10555000B0F1804F20D01C4B98421DD01B4B98427D
:105560001AD01B4B984217D01B4B984214D01B4BA0
:10557000984211D01A4B98420ED0164B98420BD03D
:10558000724B984208D0174B984205D0164B984260
:1055900002D0164B984203D1CB6822F440721A43D2
:1055A0004D690B688C6822F080022A430260C46255
:1055B0008362664B40F480629A4204BF09690163CA
:1055C00001214161B0BD00BF00040040000800405F
:1055D000000C00400000014000180040001C00408A
:1055E00000200040004001400048014000440140CC
:1055F000F0B5026A554E22F0010202620B688A6819
:10560000046A24F0020422434468856925F0730586
:105610002B4340F48065B54205D1CF6822F00C02DF
:1056200027F004073A43B54205D1D1E9055624F4E1
:1056300040742C433443446083614968416302628F
:10564000F0BD00BFF0B5026A404E22F010020262C7
:105650000B688A68046A24F0200444EA0212446851
:10566000856925F4E64545EA032C40F48065B5429A
:1056700007D1CF686FF0400303EA071322F0C0029E
:105680001A43B54207D1D1E9053524F4406444EA10
:10569000830343EA85044460C0F818C04968816305
:1056A0000262F0BDF0B5026A284E22F480720262F6
:1056B0000B688A68046A24F4007444EA022244688D
:1056C000C56925F0730545EA030C40F48065B542D1
:1056D00008D1CF6840F2FF433F0227EA030322F4D8
:1056E00040621A43B54207D1D1E9053524F440544C
:1056F00044EA031343EA05144460C0F81CC0496837
:10570000C1630262F0BD00BF70B5026A0F4E22F4A1
:10571000805202620C688A68036A23F4005343EAE9
:1057200002324368C56925F4E64545EA042440F49D
:105730008065B54204D14D6923F4804343EA851363
:105740004360C46149680164026270BD00040140A5
:1057500010B5036A046A24F001040462846924F029
:10576000F00444EA0212826123F00A02114301624A
:1057700010BD036A23F010030362836923F47043AE
:1057800043EA0232036A826123F0A00242EA011175
:1057900001627047BCB5314C84E80700FAF7D0FECF
:1057A00001204FF05041FAF711FF0120FAF7EAFF0C
:1057B000FAF7E6FDA068FAF7C7FDA068FAF7E6FF7A
:1057C00020680A21019026484022009003203023BF
:1057D000FAF734FE2348FAF7E1FF2068A168244D68
:1057E000CDE9000120A232203C210723A8472068F0
:1057F000A16820A2CDE90001352048210823A8474F
:10580000D4E901011EA2CDE9000130205A2106236E
:10581000A847D4E901011CA2CDE900013720662187
:105820000823A847D4E901011AA2CDE900013720D5
:105830009E210823A847D4E90101194ACDE90001B6
:105840003E20B2210A23A847D4E90101154ACDE937
:1058500000013E20C6210A23A847BCBD0029002024
:105860009C92000814000020476F616C546F700018
:105870008D030008546563682E436F2E00000000FE
:10588000536572696573000047544D303136414E9F
:10589000000000003D7365744144433D000000007A
:1058A0001C9400082794000870B50A46D0F8BC1272
:1058B000F9B102EB820300EB830353F8184F5CB19C
:1058C000D0F8C452C2EBC20605EB86056D6CB4FB82
:1058D000F5F606FB154474B10024C1F81442D0F863
:1058E000C002D1F80832056901F504711846A847CD
:1058F00008E0032406E000241C6011460022002377
:1059000000F0D9FB204670BDB0B5D0F8BC5275B1DF
:10591000044600F0D8FAC5F80C02D4F8C012D5F845
:105920000402CA6805F5037190470020B0BD03204A
:10593000B0BD000070B50F4E81210446B047002570
:10594000204601212587B04720468221A4F87851BE
:10595000B047E564D4F8BC0248B1D4F8C00240684E
:105960008047D4F8BC0201F089FCC4F8BC52002086
:1059700070BD00BF8B5D000810B5D0F8C01269B1D2
:10598000D0F8BC4294F80002FF2807D094F8012216
:105990008B6821469847FF2084F80002002010BD44
:1059A0000A21018000487047100100204321018036
:1059B000004870478800002043210180004870475C
:1059C000CC00002043210180004870471C010020CA
:1059D0002DE9F04104464FF4077001F077FCD8B38D
:1059E000C4F8BC020546207C4026DFF878800028F9
:1059F00008BF4FF400762046812102223346C0477B
:105A0000012720460121022233462787C047102064
:105A1000A4F87871A4F84E002046822103220823BE
:105A2000C047A4F84C70D4F8C0020068804700203A
:105A3000C5F81402C5F81802207CD5F80422002805
:105A400020464FF0010114BF40234FF4007300F0D3
:105A500095FA0020BDE8F0810020C4F8BC020220C5
:105A6000BDE8F081655F000880B5D0F8BC1261B177
:105A7000027C4023002A08BF4FF40073D1F80422AF
:105A8000012100F07BFA002080BD032080BD0029A9
:105A90000EBF0320C0F8C01200207047D0F8BC022F
:105AA000C0F8041200207047D0F8BC02C0F81022E1
:105AB000C0F80812002070477CB50446D0F8BC62DC
:105AC00000208DF80700ADF8040008780D4610F0AE
:105AD00060010FD0202940D1EA88DAB1000622D433
